{
  "_format": "hh-sol-artifact-1",
  "contractName": "KnotDAO",
  "sourceName": "contracts/KnotDAO.sol",
  "abi": [
    {
      "inputs": [
        {
          "internalType": "string",
          "name": "customBaseURI_",
          "type": "string"
        }
      ],
      "stateMutability": "nonpayable",
      "type": "constructor"
    },
    {
      "anonymous": false,
      "inputs": [
        {
          "indexed": true,
          "internalType": "address",
          "name": "owner",
          "type": "address"
        },
        {
          "indexed": true,
          "internalType": "address",
          "name": "approved",
          "type": "address"
        },
        {
          "indexed": true,
          "internalType": "uint256",
          "name": "tokenId",
          "type": "uint256"
        }
      ],
      "name": "Approval",
      "type": "event"
    },
    {
      "anonymous": false,
      "inputs": [
        {
          "indexed": true,
          "internalType": "address",
          "name": "owner",
          "type": "address"
        },
        {
          "indexed": true,
          "internalType": "address",
          "name": "operator",
          "type": "address"
        },
        {
          "indexed": false,
          "internalType": "bool",
          "name": "approved",
          "type": "bool"
        }
      ],
      "name": "ApprovalForAll",
      "type": "event"
    },
    {
      "anonymous": false,
      "inputs": [
        {
          "indexed": true,
          "internalType": "address",
          "name": "previousOwner",
          "type": "address"
        },
        {
          "indexed": true,
          "internalType": "address",
          "name": "newOwner",
          "type": "address"
        }
      ],
      "name": "OwnershipTransferred",
      "type": "event"
    },
    {
      "anonymous": false,
      "inputs": [
        {
          "indexed": true,
          "internalType": "address",
          "name": "from",
          "type": "address"
        },
        {
          "indexed": true,
          "internalType": "address",
          "name": "to",
          "type": "address"
        },
        {
          "indexed": true,
          "internalType": "uint256",
          "name": "tokenId",
          "type": "uint256"
        }
      ],
      "name": "Transfer",
      "type": "event"
    },
    {
      "inputs": [],
      "name": "MAX_MULTIMINT",
      "outputs": [
        {
          "internalType": "uint256",
          "name": "",
          "type": "uint256"
        }
      ],
      "stateMutability": "view",
      "type": "function"
    },
    {
      "inputs": [],
      "name": "MAX_SUPPLY",
      "outputs": [
        {
          "internalType": "uint256",
          "name": "",
          "type": "uint256"
        }
      ],
      "stateMutability": "view",
      "type": "function"
    },
    {
      "inputs": [],
      "name": "MINT_LIMIT_PER_WALLET",
      "outputs": [
        {
          "internalType": "uint256",
          "name": "",
          "type": "uint256"
        }
      ],
      "stateMutability": "view",
      "type": "function"
    },
    {
      "inputs": [],
      "name": "PRICE",
      "outputs": [
        {
          "internalType": "uint256",
          "name": "",
          "type": "uint256"
        }
      ],
      "stateMutability": "view",
      "type": "function"
    },
    {
      "inputs": [
        {
          "internalType": "address",
          "name": "minter",
          "type": "address"
        }
      ],
      "name": "allowedMintCount",
      "outputs": [
        {
          "internalType": "uint256",
          "name": "",
          "type": "uint256"
        }
      ],
      "stateMutability": "view",
      "type": "function"
    },
    {
      "inputs": [
        {
          "internalType": "address",
          "name": "to",
          "type": "address"
        },
        {
          "internalType": "uint256",
          "name": "tokenId",
          "type": "uint256"
        }
      ],
      "name": "approve",
      "outputs": [],
      "stateMutability": "nonpayable",
      "type": "function"
    },
    {
      "inputs": [
        {
          "internalType": "address",
          "name": "owner",
          "type": "address"
        }
      ],
      "name": "balanceOf",
      "outputs": [
        {
          "internalType": "uint256",
          "name": "",
          "type": "uint256"
        }
      ],
      "stateMutability": "view",
      "type": "function"
    },
    {
      "inputs": [
        {
          "internalType": "uint256",
          "name": "tokenId",
          "type": "uint256"
        }
      ],
      "name": "getApproved",
      "outputs": [
        {
          "internalType": "address",
          "name": "",
          "type": "address"
        }
      ],
      "stateMutability": "view",
      "type": "function"
    },
    {
      "inputs": [
        {
          "internalType": "address",
          "name": "owner",
          "type": "address"
        },
        {
          "internalType": "address",
          "name": "operator",
          "type": "address"
        }
      ],
      "name": "isApprovedForAll",
      "outputs": [
        {
          "internalType": "bool",
          "name": "",
          "type": "bool"
        }
      ],
      "stateMutability": "view",
      "type": "function"
    },
    {
      "inputs": [
        {
          "internalType": "uint256",
          "name": "count",
          "type": "uint256"
        }
      ],
      "name": "mint",
      "outputs": [],
      "stateMutability": "payable",
      "type": "function"
    },
    {
      "inputs": [],
      "name": "name",
      "outputs": [
        {
          "internalType": "string",
          "name": "",
          "type": "string"
        }
      ],
      "stateMutability": "view",
      "type": "function"
    },
    {
      "inputs": [],
      "name": "owner",
      "outputs": [
        {
          "internalType": "address",
          "name": "",
          "type": "address"
        }
      ],
      "stateMutability": "view",
      "type": "function"
    },
    {
      "inputs": [
        {
          "internalType": "uint256",
          "name": "tokenId",
          "type": "uint256"
        }
      ],
      "name": "ownerOf",
      "outputs": [
        {
          "internalType": "address",
          "name": "",
          "type": "address"
        }
      ],
      "stateMutability": "view",
      "type": "function"
    },
    {
      "inputs": [],
      "name": "renounceOwnership",
      "outputs": [],
      "stateMutability": "nonpayable",
      "type": "function"
    },
    {
      "inputs": [
        {
          "internalType": "uint256",
          "name": "",
          "type": "uint256"
        },
        {
          "internalType": "uint256",
          "name": "salePrice",
          "type": "uint256"
        }
      ],
      "name": "royaltyInfo",
      "outputs": [
        {
          "internalType": "address",
          "name": "receiver",
          "type": "address"
        },
        {
          "internalType": "uint256",
          "name": "royaltyAmount",
          "type": "uint256"
        }
      ],
      "stateMutability": "view",
      "type": "function"
    },
    {
      "inputs": [
        {
          "internalType": "address",
          "name": "from",
          "type": "address"
        },
        {
          "internalType": "address",
          "name": "to",
          "type": "address"
        },
        {
          "internalType": "uint256",
          "name": "tokenId",
          "type": "uint256"
        }
      ],
      "name": "safeTransferFrom",
      "outputs": [],
      "stateMutability": "nonpayable",
      "type": "function"
    },
    {
      "inputs": [
        {
          "internalType": "address",
          "name": "from",
          "type": "address"
        },
        {
          "internalType": "address",
          "name": "to",
          "type": "address"
        },
        {
          "internalType": "uint256",
          "name": "tokenId",
          "type": "uint256"
        },
        {
          "internalType": "bytes",
          "name": "_data",
          "type": "bytes"
        }
      ],
      "name": "safeTransferFrom",
      "outputs": [],
      "stateMutability": "nonpayable",
      "type": "function"
    },
    {
      "inputs": [],
      "name": "saleIsActive",
      "outputs": [
        {
          "internalType": "bool",
          "name": "",
          "type": "bool"
        }
      ],
      "stateMutability": "view",
      "type": "function"
    },
    {
      "inputs": [
        {
          "internalType": "address",
          "name": "operator",
          "type": "address"
        },
        {
          "internalType": "bool",
          "name": "approved",
          "type": "bool"
        }
      ],
      "name": "setApprovalForAll",
      "outputs": [],
      "stateMutability": "nonpayable",
      "type": "function"
    },
    {
      "inputs": [
        {
          "internalType": "string",
          "name": "customBaseURI_",
          "type": "string"
        }
      ],
      "name": "setBaseURI",
      "outputs": [],
      "stateMutability": "nonpayable",
      "type": "function"
    },
    {
      "inputs": [
        {
          "internalType": "bool",
          "name": "saleIsActive_",
          "type": "bool"
        }
      ],
      "name": "setSaleIsActive",
      "outputs": [],
      "stateMutability": "nonpayable",
      "type": "function"
    },
    {
      "inputs": [
        {
          "internalType": "bytes4",
          "name": "interfaceId",
          "type": "bytes4"
        }
      ],
      "name": "supportsInterface",
      "outputs": [
        {
          "internalType": "bool",
          "name": "",
          "type": "bool"
        }
      ],
      "stateMutability": "view",
      "type": "function"
    },
    {
      "inputs": [],
      "name": "symbol",
      "outputs": [
        {
          "internalType": "string",
          "name": "",
          "type": "string"
        }
      ],
      "stateMutability": "view",
      "type": "function"
    },
    {
      "inputs": [
        {
          "internalType": "uint256",
          "name": "tokenId",
          "type": "uint256"
        }
      ],
      "name": "tokenURI",
      "outputs": [
        {
          "internalType": "string",
          "name": "",
          "type": "string"
        }
      ],
      "stateMutability": "view",
      "type": "function"
    },
    {
      "inputs": [],
      "name": "totalSupply",
      "outputs": [
        {
          "internalType": "uint256",
          "name": "",
          "type": "uint256"
        }
      ],
      "stateMutability": "view",
      "type": "function"
    },
    {
      "inputs": [
        {
          "internalType": "address",
          "name": "from",
          "type": "address"
        },
        {
          "internalType": "address",
          "name": "to",
          "type": "address"
        },
        {
          "internalType": "uint256",
          "name": "tokenId",
          "type": "uint256"
        }
      ],
      "name": "transferFrom",
      "outputs": [],
      "stateMutability": "nonpayable",
      "type": "function"
    },
    {
      "inputs": [
        {
          "internalType": "address",
          "name": "newOwner",
          "type": "address"
        }
      ],
      "name": "transferOwnership",
      "outputs": [],
      "stateMutability": "nonpayable",
      "type": "function"
    },
    {
      "inputs": [],
      "name": "withdraw",
      "outputs": [],
      "stateMutability": "nonpayable",
      "type": "function"
    }
  ],
  "bytecode": "0x6080604052600b805460ff191690553480156200001b57600080fd5b50604051620021b0380380620021b08339810160408190526200003e91620001dd565b60408051808201825260078152664b6e6f7444414f60c81b60208083019182528351808501909452600484526312d393d560e21b908401528151919291620000899160009162000121565b5080516200009f90600190602084019062000121565b5050600160065550620000b233620000cf565b8051620000c790600c90602084019062000121565b5050620002f6565b600780546001600160a01b038381166001600160a01b0319831681179093556040519116919082907f8be0079c531659141344cd1fd0a4f28419497f9722a3daafe3b4186f6b6457e090600090a35050565b8280546200012f90620002b9565b90600052602060002090601f0160209004810192826200015357600085556200019e565b82601f106200016e57805160ff19168380011785556200019e565b828001600101855582156200019e579182015b828111156200019e57825182559160200191906001019062000181565b50620001ac929150620001b0565b5090565b5b80821115620001ac5760008155600101620001b1565b634e487b7160e01b600052604160045260246000fd5b60006020808385031215620001f157600080fd5b82516001600160401b03808211156200020957600080fd5b818501915085601f8301126200021e57600080fd5b815181811115620002335762000233620001c7565b604051601f8201601f19908116603f011681019083821181831017156200025e576200025e620001c7565b8160405282815288868487010111156200027757600080fd5b600093505b828410156200029b57848401860151818501870152928501926200027c565b82841115620002ad5760008684830101525b98975050505050505050565b600181811c90821680620002ce57607f821691505b60208210811415620002f057634e487b7160e01b600052602260045260246000fd5b50919050565b611eaa80620003066000396000f3fe6080604052600436106101b75760003560e01c8063715018a6116100ec578063b8fc10511161008a578063d6c336ed11610064578063d6c336ed146104c6578063e985e9c5146104db578063eb8d244414610524578063f2fde38b1461053e57600080fd5b8063b8fc105114610471578063bb660c0a14610486578063c87b56dd146104a657600080fd5b806395d89b41116100c657806395d89b4114610409578063a0712d681461041e578063a22cb46514610431578063b88d4fde1461045157600080fd5b8063715018a6146103ba5780638d859f3e146103cf5780638da5cb5b146103eb57600080fd5b80632a55205a1161015957806342842e0e1161013357806342842e0e1461033a57806355f804b31461035a5780636352211e1461037a57806370a082311461039a57600080fd5b80632a55205a146102d057806332cb6b0c1461030f5780633ccfd60b1461032557600080fd5b8063081812fc11610195578063081812fc14610235578063095ea7b31461026d57806318160ddd1461028d57806323b872dd146102b057600080fd5b806301ffc9a7146101bc57806302c88989146101f157806306fdde0314610213575b600080fd5b3480156101c857600080fd5b506101dc6101d73660046118cc565b61055e565b60405190151581526020015b60405180910390f35b3480156101fd57600080fd5b5061021161020c3660046118fe565b610589565b005b34801561021f57600080fd5b506102286105cf565b6040516101e89190611971565b34801561024157600080fd5b50610255610250366004611984565b610661565b6040516001600160a01b0390911681526020016101e8565b34801561027957600080fd5b506102116102883660046119b4565b6106f6565b34801561029957600080fd5b506102a261080c565b6040519081526020016101e8565b3480156102bc57600080fd5b506102116102cb3660046119de565b61081c565b3480156102dc57600080fd5b506102f06102eb366004611a1a565b61084d565b604080516001600160a01b0390931683526020830191909152016101e8565b34801561031b57600080fd5b506102a261138881565b34801561033157600080fd5b50610211610875565b34801561034657600080fd5b506102116103553660046119de565b6108f1565b34801561036657600080fd5b50610211610375366004611ac8565b61090c565b34801561038657600080fd5b50610255610395366004611984565b61094d565b3480156103a657600080fd5b506102a26103b5366004611b11565b6109c4565b3480156103c657600080fd5b50610211610a4b565b3480156103db57600080fd5b506102a267016345785d8a000081565b3480156103f757600080fd5b506007546001600160a01b0316610255565b34801561041557600080fd5b50610228610a81565b61021161042c366004611984565b610a90565b34801561043d57600080fd5b5061021161044c366004611b2c565b610cf5565b34801561045d57600080fd5b5061021161046c366004611b5f565b610d00565b34801561047d57600080fd5b506102a2601481565b34801561049257600080fd5b506102a26104a1366004611b11565b610d38565b3480156104b257600080fd5b506102286104c1366004611984565b610d5c565b3480156104d257600080fd5b506102a2600581565b3480156104e757600080fd5b506101dc6104f6366004611bdb565b6001600160a01b03918216600090815260056020908152604080832093909416825291909152205460ff1690565b34801561053057600080fd5b50600b546101dc9060ff1681565b34801561054a57600080fd5b50610211610559366004611b11565b610e37565b60006001600160e01b0319821663152a902d60e11b1480610583575061058382610ed2565b92915050565b6007546001600160a01b031633146105bc5760405162461bcd60e51b81526004016105b390611c05565b60405180910390fd5b600b805460ff1916911515919091179055565b6060600080546105de90611c3a565b80601f016020809104026020016040519081016040528092919081815260200182805461060a90611c3a565b80156106575780601f1061062c57610100808354040283529160200191610657565b820191906000526020600020905b81548152906001019060200180831161063a57829003601f168201915b5050505050905090565b6000818152600260205260408120546001600160a01b03166106da5760405162461bcd60e51b815260206004820152602c60248201527f4552433732313a20617070726f76656420717565727920666f72206e6f6e657860448201526b34b9ba32b73a103a37b5b2b760a11b60648201526084016105b3565b506000908152600460205260409020546001600160a01b031690565b60006107018261094d565b9050806001600160a01b0316836001600160a01b0316141561076f5760405162461bcd60e51b815260206004820152602160248201527f4552433732313a20617070726f76616c20746f2063757272656e74206f776e656044820152603960f91b60648201526084016105b3565b336001600160a01b038216148061078b575061078b81336104f6565b6107fd5760405162461bcd60e51b815260206004820152603860248201527f4552433732313a20617070726f76652063616c6c6572206973206e6f74206f7760448201527f6e6572206e6f7220617070726f76656420666f7220616c6c000000000000000060648201526084016105b3565b6108078383610f22565b505050565b6000610817600a5490565b905090565b6108263382610f90565b6108425760405162461bcd60e51b81526004016105b390611c75565b610807838383611087565b60008030612710610860856102ee611cdc565b61086a9190611d11565b915091509250929050565b600260065414156108c85760405162461bcd60e51b815260206004820152601f60248201527f5265656e7472616e637947756172643a207265656e7472616e742063616c6c0060448201526064016105b3565b6002600655476108e96108e36007546001600160a01b031690565b82611223565b506001600655565b61080783838360405180602001604052806000815250610d00565b6007546001600160a01b031633146109365760405162461bcd60e51b81526004016105b390611c05565b805161094990600c90602084019061181d565b5050565b6000818152600260205260408120546001600160a01b0316806105835760405162461bcd60e51b815260206004820152602960248201527f4552433732313a206f776e657220717565727920666f72206e6f6e657869737460448201526832b73a103a37b5b2b760b91b60648201526084016105b3565b60006001600160a01b038216610a2f5760405162461bcd60e51b815260206004820152602a60248201527f4552433732313a2062616c616e636520717565727920666f7220746865207a65604482015269726f206164647265737360b01b60648201526084016105b3565b506001600160a01b031660009081526003602052604090205490565b6007546001600160a01b03163314610a755760405162461bcd60e51b81526004016105b390611c05565b610a7f600061133c565b565b6060600180546105de90611c3a565b60026006541415610ae35760405162461bcd60e51b815260206004820152601f60248201527f5265656e7472616e637947756172643a207265656e7472616e742063616c6c0060448201526064016105b3565b6002600655600b5460ff16610b2c5760405162461bcd60e51b815260206004820152600f60248201526e53616c65206e6f742061637469766560881b60448201526064016105b3565b80610b3633610d38565b10610b4a57610b45338261138e565b610b8b565b60405162461bcd60e51b8152602060048201526016602482015275135a5b9d1a5b99c81b1a5b5a5d08195e18d95959195960521b60448201526064016105b3565b611388600182610b9961080c565b610ba39190611d25565b610bad9190611d3d565b10610bef5760405162461bcd60e51b815260206004820152601260248201527145786365656473206d617820737570706c7960701b60448201526064016105b3565b6014811115610c405760405162461bcd60e51b815260206004820152601960248201527f4d696e74206174206d6f737420323020617420612074696d650000000000000060448201526064016105b3565b610c528167016345785d8a0000611cdc565b341015610cb05760405162461bcd60e51b815260206004820152602660248201527f496e73756666696369656e74207061796d656e742c20302e312045544820706560448201526572206974656d60d01b60648201526084016105b3565b60005b81811015610cec57610ccc33610cc761080c565b6113bf565b610cda600a80546001019055565b80610ce481611d54565b915050610cb3565b50506001600655565b610949338383611501565b610d0a3383610f90565b610d265760405162461bcd60e51b81526004016105b390611c75565b610d32848484846115d0565b50505050565b6001600160a01b038116600090815260086020526040812054610583906005611d3d565b6000818152600260205260409020546060906001600160a01b0316610ddb5760405162461bcd60e51b815260206004820152602f60248201527f4552433732314d657461646174613a2055524920717565727920666f72206e6f60448201526e3732bc34b9ba32b73a103a37b5b2b760891b60648201526084016105b3565b6000610de5611603565b90506000815111610e055760405180602001604052806000815250610e30565b80610e0f84611612565b604051602001610e20929190611d6f565b6040516020818303038152906040525b9392505050565b6007546001600160a01b03163314610e615760405162461bcd60e51b81526004016105b390611c05565b6001600160a01b038116610ec65760405162461bcd60e51b815260206004820152602660248201527f4f776e61626c653a206e6577206f776e657220697320746865207a65726f206160448201526564647265737360d01b60648201526084016105b3565b610ecf8161133c565b50565b60006001600160e01b031982166380ac58cd60e01b1480610f0357506001600160e01b03198216635b5e139f60e01b145b8061058357506301ffc9a760e01b6001600160e01b0319831614610583565b600081815260046020526040902080546001600160a01b0319166001600160a01b0384169081179091558190610f578261094d565b6001600160a01b03167f8c5be1e5ebec7d5bd14f71427d1e84f3dd0314c0f7b2291e5b200ac8c7c3b92560405160405180910390a45050565b6000818152600260205260408120546001600160a01b03166110095760405162461bcd60e51b815260206004820152602c60248201527f4552433732313a206f70657261746f7220717565727920666f72206e6f6e657860448201526b34b9ba32b73a103a37b5b2b760a11b60648201526084016105b3565b60006110148361094d565b9050806001600160a01b0316846001600160a01b0316148061104f5750836001600160a01b031661104484610661565b6001600160a01b0316145b8061107f57506001600160a01b0380821660009081526005602090815260408083209388168352929052205460ff165b949350505050565b826001600160a01b031661109a8261094d565b6001600160a01b0316146110fe5760405162461bcd60e51b815260206004820152602560248201527f4552433732313a207472616e736665722066726f6d20696e636f72726563742060448201526437bbb732b960d91b60648201526084016105b3565b6001600160a01b0382166111605760405162461bcd60e51b8152602060048201526024808201527f4552433732313a207472616e7366657220746f20746865207a65726f206164646044820152637265737360e01b60648201526084016105b3565b61116b600082610f22565b6001600160a01b0383166000908152600360205260408120805460019290611194908490611d3d565b90915550506001600160a01b03821660009081526003602052604081208054600192906111c2908490611d25565b909155505060008181526002602052604080822080546001600160a01b0319166001600160a01b0386811691821790925591518493918716917fddf252ad1be2c89b69c2b068fc378daa952ba7f163c4a11628f55a4df523b3ef91a4505050565b804710156112735760405162461bcd60e51b815260206004820152601d60248201527f416464726573733a20696e73756666696369656e742062616c616e636500000060448201526064016105b3565b6000826001600160a01b03168260405160006040518083038185875af1925050503d80600081146112c0576040519150601f19603f3d011682016040523d82523d6000602084013e6112c5565b606091505b50509050806108075760405162461bcd60e51b815260206004820152603a60248201527f416464726573733a20756e61626c6520746f2073656e642076616c75652c207260448201527f6563697069656e74206d6179206861766520726576657274656400000000000060648201526084016105b3565b600780546001600160a01b038381166001600160a01b0319831681179093556040519116919082907f8be0079c531659141344cd1fd0a4f28419497f9722a3daafe3b4186f6b6457e090600090a35050565b6001600160a01b038216600090815260086020526040812080548392906113b6908490611d25565b90915550505050565b6001600160a01b0382166114155760405162461bcd60e51b815260206004820181905260248201527f4552433732313a206d696e7420746f20746865207a65726f206164647265737360448201526064016105b3565b6000818152600260205260409020546001600160a01b03161561147a5760405162461bcd60e51b815260206004820152601c60248201527f4552433732313a20746f6b656e20616c7265616479206d696e7465640000000060448201526064016105b3565b6001600160a01b03821660009081526003602052604081208054600192906114a3908490611d25565b909155505060008181526002602052604080822080546001600160a01b0319166001600160a01b03861690811790915590518392907fddf252ad1be2c89b69c2b068fc378daa952ba7f163c4a11628f55a4df523b3ef908290a45050565b816001600160a01b0316836001600160a01b031614156115635760405162461bcd60e51b815260206004820152601960248201527f4552433732313a20617070726f766520746f2063616c6c65720000000000000060448201526064016105b3565b6001600160a01b03838116600081815260056020908152604080832094871680845294825291829020805460ff191686151590811790915591519182527f17307eab39ab6107e8899845ad3d59bd9653f200f220920489ca2b5937696c31910160405180910390a3505050565b6115db848484611087565b6115e784848484611710565b610d325760405162461bcd60e51b81526004016105b390611d9e565b6060600c80546105de90611c3a565b6060816116365750506040805180820190915260018152600360fc1b602082015290565b8160005b8115611660578061164a81611d54565b91506116599050600a83611d11565b915061163a565b60008167ffffffffffffffff81111561167b5761167b611a3c565b6040519080825280601f01601f1916602001820160405280156116a5576020820181803683370190505b5090505b841561107f576116ba600183611d3d565b91506116c7600a86611df0565b6116d2906030611d25565b60f81b8183815181106116e7576116e7611e04565b60200101906001600160f81b031916908160001a905350611709600a86611d11565b94506116a9565b60006001600160a01b0384163b1561181257604051630a85bd0160e11b81526001600160a01b0385169063150b7a0290611754903390899088908890600401611e1a565b602060405180830381600087803b15801561176e57600080fd5b505af192505050801561179e575060408051601f3d908101601f1916820190925261179b91810190611e57565b60015b6117f8573d8080156117cc576040519150601f19603f3d011682016040523d82523d6000602084013e6117d1565b606091505b5080516117f05760405162461bcd60e51b81526004016105b390611d9e565b805181602001fd5b6001600160e01b031916630a85bd0160e11b14905061107f565b506001949350505050565b82805461182990611c3a565b90600052602060002090601f01602090048101928261184b5760008555611891565b82601f1061186457805160ff1916838001178555611891565b82800160010185558215611891579182015b82811115611891578251825591602001919060010190611876565b5061189d9291506118a1565b5090565b5b8082111561189d57600081556001016118a2565b6001600160e01b031981168114610ecf57600080fd5b6000602082840312156118de57600080fd5b8135610e30816118b6565b803580151581146118f957600080fd5b919050565b60006020828403121561191057600080fd5b610e30826118e9565b60005b8381101561193457818101518382015260200161191c565b83811115610d325750506000910152565b6000815180845261195d816020860160208601611919565b601f01601f19169290920160200192915050565b602081526000610e306020830184611945565b60006020828403121561199657600080fd5b5035919050565b80356001600160a01b03811681146118f957600080fd5b600080604083850312156119c757600080fd5b6119d08361199d565b946020939093013593505050565b6000806000606084860312156119f357600080fd5b6119fc8461199d565b9250611a0a6020850161199d565b9150604084013590509250925092565b60008060408385031215611a2d57600080fd5b50508035926020909101359150565b634e487b7160e01b600052604160045260246000fd5b600067ffffffffffffffff80841115611a6d57611a6d611a3c565b604051601f8501601f19908116603f01168101908282118183101715611a9557611a95611a3c565b81604052809350858152868686011115611aae57600080fd5b858560208301376000602087830101525050509392505050565b600060208284031215611ada57600080fd5b813567ffffffffffffffff811115611af157600080fd5b8201601f81018413611b0257600080fd5b61107f84823560208401611a52565b600060208284031215611b2357600080fd5b610e308261199d565b60008060408385031215611b3f57600080fd5b611b488361199d565b9150611b56602084016118e9565b90509250929050565b60008060008060808587031215611b7557600080fd5b611b7e8561199d565b9350611b8c6020860161199d565b925060408501359150606085013567ffffffffffffffff811115611baf57600080fd5b8501601f81018713611bc057600080fd5b611bcf87823560208401611a52565b91505092959194509250565b60008060408385031215611bee57600080fd5b611bf78361199d565b9150611b566020840161199d565b6020808252818101527f4f776e61626c653a2063616c6c6572206973206e6f7420746865206f776e6572604082015260600190565b600181811c90821680611c4e57607f821691505b60208210811415611c6f57634e487b7160e01b600052602260045260246000fd5b50919050565b60208082526031908201527f4552433732313a207472616e736665722063616c6c6572206973206e6f74206f6040820152701ddb995c881b9bdc88185c1c1c9bdd9959607a1b606082015260800190565b634e487b7160e01b600052601160045260246000fd5b6000816000190483118215151615611cf657611cf6611cc6565b500290565b634e487b7160e01b600052601260045260246000fd5b600082611d2057611d20611cfb565b500490565b60008219821115611d3857611d38611cc6565b500190565b600082821015611d4f57611d4f611cc6565b500390565b6000600019821415611d6857611d68611cc6565b5060010190565b60008351611d81818460208801611919565b835190830190611d95818360208801611919565b01949350505050565b60208082526032908201527f4552433732313a207472616e7366657220746f206e6f6e20455243373231526560408201527131b2b4bb32b91034b6b83632b6b2b73a32b960711b606082015260800190565b600082611dff57611dff611cfb565b500690565b634e487b7160e01b600052603260045260246000fd5b6001600160a01b0385811682528416602082015260408101839052608060608201819052600090611e4d90830184611945565b9695505050505050565b600060208284031215611e6957600080fd5b8151610e30816118b656fea2646970667358221220f3b6bdbc046abc68466729e85600fb2f85f51b7618382c45d19e74383ef4591764736f6c63430008090033",
  "linkReferences": {},
  "deployedLinkReferences": {}
}