{
  "_format": "hh-sol-artifact-1",
  "contractName": "KnotDAO",
  "sourceName": "contracts/KnotDAO.sol",
  "abi": [
    {
      "inputs": [
        {
          "internalType": "string",
          "name": "customBaseURI_",
          "type": "string"
        }
      ],
      "stateMutability": "nonpayable",
      "type": "constructor"
    },
    {
      "anonymous": false,
      "inputs": [
        {
          "indexed": true,
          "internalType": "address",
          "name": "owner",
          "type": "address"
        },
        {
          "indexed": true,
          "internalType": "address",
          "name": "approved",
          "type": "address"
        },
        {
          "indexed": true,
          "internalType": "uint256",
          "name": "tokenId",
          "type": "uint256"
        }
      ],
      "name": "Approval",
      "type": "event"
    },
    {
      "anonymous": false,
      "inputs": [
        {
          "indexed": true,
          "internalType": "address",
          "name": "owner",
          "type": "address"
        },
        {
          "indexed": true,
          "internalType": "address",
          "name": "operator",
          "type": "address"
        },
        {
          "indexed": false,
          "internalType": "bool",
          "name": "approved",
          "type": "bool"
        }
      ],
      "name": "ApprovalForAll",
      "type": "event"
    },
    {
      "anonymous": false,
      "inputs": [
        {
          "indexed": true,
          "internalType": "address",
          "name": "previousOwner",
          "type": "address"
        },
        {
          "indexed": true,
          "internalType": "address",
          "name": "newOwner",
          "type": "address"
        }
      ],
      "name": "OwnershipTransferred",
      "type": "event"
    },
    {
      "anonymous": false,
      "inputs": [
        {
          "indexed": true,
          "internalType": "address",
          "name": "from",
          "type": "address"
        },
        {
          "indexed": true,
          "internalType": "address",
          "name": "to",
          "type": "address"
        },
        {
          "indexed": true,
          "internalType": "uint256",
          "name": "tokenId",
          "type": "uint256"
        }
      ],
      "name": "Transfer",
      "type": "event"
    },
    {
      "inputs": [],
      "name": "MAX_MULTIMINT",
      "outputs": [
        {
          "internalType": "uint256",
          "name": "",
          "type": "uint256"
        }
      ],
      "stateMutability": "view",
      "type": "function"
    },
    {
      "inputs": [],
      "name": "MAX_SUPPLY",
      "outputs": [
        {
          "internalType": "uint256",
          "name": "",
          "type": "uint256"
        }
      ],
      "stateMutability": "view",
      "type": "function"
    },
    {
      "inputs": [],
      "name": "MINT_LIMIT_PER_WALLET",
      "outputs": [
        {
          "internalType": "uint256",
          "name": "",
          "type": "uint256"
        }
      ],
      "stateMutability": "view",
      "type": "function"
    },
    {
      "inputs": [],
      "name": "PRICE",
      "outputs": [
        {
          "internalType": "uint256",
          "name": "",
          "type": "uint256"
        }
      ],
      "stateMutability": "view",
      "type": "function"
    },
    {
      "inputs": [
        {
          "internalType": "address",
          "name": "minter",
          "type": "address"
        }
      ],
      "name": "allowedMintCount",
      "outputs": [
        {
          "internalType": "uint256",
          "name": "",
          "type": "uint256"
        }
      ],
      "stateMutability": "view",
      "type": "function"
    },
    {
      "inputs": [
        {
          "internalType": "address",
          "name": "to",
          "type": "address"
        },
        {
          "internalType": "uint256",
          "name": "tokenId",
          "type": "uint256"
        }
      ],
      "name": "approve",
      "outputs": [],
      "stateMutability": "nonpayable",
      "type": "function"
    },
    {
      "inputs": [
        {
          "internalType": "address",
          "name": "owner",
          "type": "address"
        }
      ],
      "name": "balanceOf",
      "outputs": [
        {
          "internalType": "uint256",
          "name": "",
          "type": "uint256"
        }
      ],
      "stateMutability": "view",
      "type": "function"
    },
    {
      "inputs": [
        {
          "internalType": "uint256",
          "name": "tokenId",
          "type": "uint256"
        }
      ],
      "name": "getApproved",
      "outputs": [
        {
          "internalType": "address",
          "name": "",
          "type": "address"
        }
      ],
      "stateMutability": "view",
      "type": "function"
    },
    {
      "inputs": [
        {
          "internalType": "address",
          "name": "owner",
          "type": "address"
        },
        {
          "internalType": "address",
          "name": "operator",
          "type": "address"
        }
      ],
      "name": "isApprovedForAll",
      "outputs": [
        {
          "internalType": "bool",
          "name": "",
          "type": "bool"
        }
      ],
      "stateMutability": "view",
      "type": "function"
    },
    {
      "inputs": [
        {
          "internalType": "uint256",
          "name": "count",
          "type": "uint256"
        }
      ],
      "name": "mint",
      "outputs": [],
      "stateMutability": "payable",
      "type": "function"
    },
    {
      "inputs": [
        {
          "internalType": "uint256",
          "name": "count",
          "type": "uint256"
        }
      ],
      "name": "mintReserved",
      "outputs": [],
      "stateMutability": "nonpayable",
      "type": "function"
    },
    {
      "inputs": [],
      "name": "name",
      "outputs": [
        {
          "internalType": "string",
          "name": "",
          "type": "string"
        }
      ],
      "stateMutability": "view",
      "type": "function"
    },
    {
      "inputs": [],
      "name": "owner",
      "outputs": [
        {
          "internalType": "address",
          "name": "",
          "type": "address"
        }
      ],
      "stateMutability": "view",
      "type": "function"
    },
    {
      "inputs": [
        {
          "internalType": "uint256",
          "name": "tokenId",
          "type": "uint256"
        }
      ],
      "name": "ownerOf",
      "outputs": [
        {
          "internalType": "address",
          "name": "",
          "type": "address"
        }
      ],
      "stateMutability": "view",
      "type": "function"
    },
    {
      "inputs": [],
      "name": "renounceOwnership",
      "outputs": [],
      "stateMutability": "nonpayable",
      "type": "function"
    },
    {
      "inputs": [
        {
          "internalType": "uint256",
          "name": "",
          "type": "uint256"
        },
        {
          "internalType": "uint256",
          "name": "salePrice",
          "type": "uint256"
        }
      ],
      "name": "royaltyInfo",
      "outputs": [
        {
          "internalType": "address",
          "name": "receiver",
          "type": "address"
        },
        {
          "internalType": "uint256",
          "name": "royaltyAmount",
          "type": "uint256"
        }
      ],
      "stateMutability": "view",
      "type": "function"
    },
    {
      "inputs": [
        {
          "internalType": "address",
          "name": "from",
          "type": "address"
        },
        {
          "internalType": "address",
          "name": "to",
          "type": "address"
        },
        {
          "internalType": "uint256",
          "name": "tokenId",
          "type": "uint256"
        }
      ],
      "name": "safeTransferFrom",
      "outputs": [],
      "stateMutability": "nonpayable",
      "type": "function"
    },
    {
      "inputs": [
        {
          "internalType": "address",
          "name": "from",
          "type": "address"
        },
        {
          "internalType": "address",
          "name": "to",
          "type": "address"
        },
        {
          "internalType": "uint256",
          "name": "tokenId",
          "type": "uint256"
        },
        {
          "internalType": "bytes",
          "name": "_data",
          "type": "bytes"
        }
      ],
      "name": "safeTransferFrom",
      "outputs": [],
      "stateMutability": "nonpayable",
      "type": "function"
    },
    {
      "inputs": [],
      "name": "saleIsActive",
      "outputs": [
        {
          "internalType": "bool",
          "name": "",
          "type": "bool"
        }
      ],
      "stateMutability": "view",
      "type": "function"
    },
    {
      "inputs": [
        {
          "internalType": "address",
          "name": "operator",
          "type": "address"
        },
        {
          "internalType": "bool",
          "name": "approved",
          "type": "bool"
        }
      ],
      "name": "setApprovalForAll",
      "outputs": [],
      "stateMutability": "nonpayable",
      "type": "function"
    },
    {
      "inputs": [
        {
          "internalType": "string",
          "name": "customBaseURI_",
          "type": "string"
        }
      ],
      "name": "setBaseURI",
      "outputs": [],
      "stateMutability": "nonpayable",
      "type": "function"
    },
    {
      "inputs": [
        {
          "internalType": "bool",
          "name": "saleIsActive_",
          "type": "bool"
        }
      ],
      "name": "setSaleIsActive",
      "outputs": [],
      "stateMutability": "nonpayable",
      "type": "function"
    },
    {
      "inputs": [
        {
          "internalType": "bytes4",
          "name": "interfaceId",
          "type": "bytes4"
        }
      ],
      "name": "supportsInterface",
      "outputs": [
        {
          "internalType": "bool",
          "name": "",
          "type": "bool"
        }
      ],
      "stateMutability": "view",
      "type": "function"
    },
    {
      "inputs": [],
      "name": "symbol",
      "outputs": [
        {
          "internalType": "string",
          "name": "",
          "type": "string"
        }
      ],
      "stateMutability": "view",
      "type": "function"
    },
    {
      "inputs": [
        {
          "internalType": "uint256",
          "name": "tokenId",
          "type": "uint256"
        }
      ],
      "name": "tokenURI",
      "outputs": [
        {
          "internalType": "string",
          "name": "",
          "type": "string"
        }
      ],
      "stateMutability": "view",
      "type": "function"
    },
    {
      "inputs": [],
      "name": "totalSupply",
      "outputs": [
        {
          "internalType": "uint256",
          "name": "",
          "type": "uint256"
        }
      ],
      "stateMutability": "view",
      "type": "function"
    },
    {
      "inputs": [
        {
          "internalType": "address",
          "name": "from",
          "type": "address"
        },
        {
          "internalType": "address",
          "name": "to",
          "type": "address"
        },
        {
          "internalType": "uint256",
          "name": "tokenId",
          "type": "uint256"
        }
      ],
      "name": "transferFrom",
      "outputs": [],
      "stateMutability": "nonpayable",
      "type": "function"
    },
    {
      "inputs": [
        {
          "internalType": "address",
          "name": "newOwner",
          "type": "address"
        }
      ],
      "name": "transferOwnership",
      "outputs": [],
      "stateMutability": "nonpayable",
      "type": "function"
    },
    {
      "inputs": [],
      "name": "withdraw",
      "outputs": [],
      "stateMutability": "nonpayable",
      "type": "function"
    }
  ],
  "bytecode": "0x6080604052600b805460ff191690553480156200001b57600080fd5b5060405162002300380380620023008339810160408190526200003e91620001dd565b60408051808201825260078152664b6e6f7444414f60c81b60208083019182528351808501909452600484526312d393d560e21b908401528151919291620000899160009162000121565b5080516200009f90600190602084019062000121565b5050600160065550620000b233620000cf565b8051620000c790600c90602084019062000121565b5050620002f6565b600780546001600160a01b038381166001600160a01b0319831681179093556040519116919082907f8be0079c531659141344cd1fd0a4f28419497f9722a3daafe3b4186f6b6457e090600090a35050565b8280546200012f90620002b9565b90600052602060002090601f0160209004810192826200015357600085556200019e565b82601f106200016e57805160ff19168380011785556200019e565b828001600101855582156200019e579182015b828111156200019e57825182559160200191906001019062000181565b50620001ac929150620001b0565b5090565b5b80821115620001ac5760008155600101620001b1565b634e487b7160e01b600052604160045260246000fd5b60006020808385031215620001f157600080fd5b82516001600160401b03808211156200020957600080fd5b818501915085601f8301126200021e57600080fd5b815181811115620002335762000233620001c7565b604051601f8201601f19908116603f011681019083821181831017156200025e576200025e620001c7565b8160405282815288868487010111156200027757600080fd5b600093505b828410156200029b57848401860151818501870152928501926200027c565b82841115620002ad5760008684830101525b98975050505050505050565b600181811c90821680620002ce57607f821691505b60208210811415620002f057634e487b7160e01b600052602260045260246000fd5b50919050565b611ffa80620003066000396000f3fe6080604052600436106101c25760003560e01c8063715018a6116100f7578063b88d4fde11610095578063d6c336ed11610064578063d6c336ed146104f1578063e985e9c514610506578063eb8d24441461054f578063f2fde38b1461056957600080fd5b8063b88d4fde1461047c578063b8fc10511461049c578063bb660c0a146104b1578063c87b56dd146104d157600080fd5b806395d89b41116100d157806395d89b41146104145780639a5d140b14610429578063a0712d6814610449578063a22cb4651461045c57600080fd5b8063715018a6146103c55780638d859f3e146103da5780638da5cb5b146103f657600080fd5b80632a55205a1161016457806342842e0e1161013e57806342842e0e1461034557806355f804b3146103655780636352211e1461038557806370a08231146103a557600080fd5b80632a55205a146102db57806332cb6b0c1461031a5780633ccfd60b1461033057600080fd5b8063081812fc116101a0578063081812fc14610240578063095ea7b31461027857806318160ddd1461029857806323b872dd146102bb57600080fd5b806301ffc9a7146101c757806302c88989146101fc57806306fdde031461021e575b600080fd5b3480156101d357600080fd5b506101e76101e23660046119ed565b610589565b60405190151581526020015b60405180910390f35b34801561020857600080fd5b5061021c610217366004611a1f565b6105b4565b005b34801561022a57600080fd5b506102336105fa565b6040516101f39190611a92565b34801561024c57600080fd5b5061026061025b366004611aa5565b61068c565b6040516001600160a01b0390911681526020016101f3565b34801561028457600080fd5b5061021c610293366004611ad5565b610721565b3480156102a457600080fd5b506102ad610837565b6040519081526020016101f3565b3480156102c757600080fd5b5061021c6102d6366004611aff565b610847565b3480156102e757600080fd5b506102fb6102f6366004611b3b565b610878565b604080516001600160a01b0390931683526020830191909152016101f3565b34801561032657600080fd5b506102ad61138881565b34801561033c57600080fd5b5061021c6108a0565b34801561035157600080fd5b5061021c610360366004611aff565b61091c565b34801561037157600080fd5b5061021c610380366004611be9565b610937565b34801561039157600080fd5b506102606103a0366004611aa5565b610978565b3480156103b157600080fd5b506102ad6103c0366004611c32565b6109ef565b3480156103d157600080fd5b5061021c610a76565b3480156103e657600080fd5b506102ad67016345785d8a000081565b34801561040257600080fd5b506007546001600160a01b0316610260565b34801561042057600080fd5b50610233610aac565b34801561043557600080fd5b5061021c610444366004611aa5565b610abb565b61021c610457366004611aa5565b610b85565b34801561046857600080fd5b5061021c610477366004611c4d565b610de5565b34801561048857600080fd5b5061021c610497366004611c80565b610df0565b3480156104a857600080fd5b506102ad601481565b3480156104bd57600080fd5b506102ad6104cc366004611c32565b610e28565b3480156104dd57600080fd5b506102336104ec366004611aa5565b610e4c565b3480156104fd57600080fd5b506102ad603281565b34801561051257600080fd5b506101e7610521366004611cfc565b6001600160a01b03918216600090815260056020908152604080832093909416825291909152205460ff1690565b34801561055b57600080fd5b50600b546101e79060ff1681565b34801561057557600080fd5b5061021c610584366004611c32565b610e7d565b60006001600160e01b0319821663152a902d60e11b14806105ae57506105ae82610f18565b92915050565b6007546001600160a01b031633146105e75760405162461bcd60e51b81526004016105de90611d26565b60405180910390fd5b600b805460ff1916911515919091179055565b60606000805461060990611d5b565b80601f016020809104026020016040519081016040528092919081815260200182805461063590611d5b565b80156106825780601f1061065757610100808354040283529160200191610682565b820191906000526020600020905b81548152906001019060200180831161066557829003601f168201915b5050505050905090565b6000818152600260205260408120546001600160a01b03166107055760405162461bcd60e51b815260206004820152602c60248201527f4552433732313a20617070726f76656420717565727920666f72206e6f6e657860448201526b34b9ba32b73a103a37b5b2b760a11b60648201526084016105de565b506000908152600460205260409020546001600160a01b031690565b600061072c82610978565b9050806001600160a01b0316836001600160a01b0316141561079a5760405162461bcd60e51b815260206004820152602160248201527f4552433732313a20617070726f76616c20746f2063757272656e74206f776e656044820152603960f91b60648201526084016105de565b336001600160a01b03821614806107b657506107b68133610521565b6108285760405162461bcd60e51b815260206004820152603860248201527f4552433732313a20617070726f76652063616c6c6572206973206e6f74206f7760448201527f6e6572206e6f7220617070726f76656420666f7220616c6c000000000000000060648201526084016105de565b6108328383610f68565b505050565b6000610842600a5490565b905090565b6108513382610fd6565b61086d5760405162461bcd60e51b81526004016105de90611d96565b6108328383836110cd565b6000803061271061088b856102ee611dfd565b6108959190611e32565b915091509250929050565b600260065414156108f35760405162461bcd60e51b815260206004820152601f60248201527f5265656e7472616e637947756172643a207265656e7472616e742063616c6c0060448201526064016105de565b60026006554761091461090e6007546001600160a01b031690565b82611269565b506001600655565b61083283838360405180602001604052806000815250610df0565b6007546001600160a01b031633146109615760405162461bcd60e51b81526004016105de90611d26565b805161097490600c90602084019061193e565b5050565b6000818152600260205260408120546001600160a01b0316806105ae5760405162461bcd60e51b815260206004820152602960248201527f4552433732313a206f776e657220717565727920666f72206e6f6e657869737460448201526832b73a103a37b5b2b760b91b60648201526084016105de565b60006001600160a01b038216610a5a5760405162461bcd60e51b815260206004820152602a60248201527f4552433732313a2062616c616e636520717565727920666f7220746865207a65604482015269726f206164647265737360b01b60648201526084016105de565b506001600160a01b031660009081526003602052604090205490565b6007546001600160a01b03163314610aa05760405162461bcd60e51b81526004016105de90611d26565b610aaa6000611382565b565b60606001805461060990611d5b565b6007546001600160a01b03163314610ae55760405162461bcd60e51b81526004016105de90611d26565b611388600182610af3610837565b610afd9190611e46565b610b079190611e5e565b10610b495760405162461bcd60e51b815260206004820152601260248201527145786365656473206d617820737570706c7960701b60448201526064016105de565b60005b8181101561097457610b6533610b60610837565b6113d4565b610b73600a80546001019055565b80610b7d81611e75565b915050610b4c565b60026006541415610bd85760405162461bcd60e51b815260206004820152601f60248201527f5265656e7472616e637947756172643a207265656e7472616e742063616c6c0060448201526064016105de565b6002600655600b5460ff16610c215760405162461bcd60e51b815260206004820152600f60248201526e53616c65206e6f742061637469766560881b60448201526064016105de565b80610c2b33610e28565b10610c3f57610c3a3382611516565b610c80565b60405162461bcd60e51b8152602060048201526016602482015275135a5b9d1a5b99c81b1a5b5a5d08195e18d95959195960521b60448201526064016105de565b611388600182610c8e610837565b610c989190611e46565b610ca29190611e5e565b10610ce45760405162461bcd60e51b815260206004820152601260248201527145786365656473206d617820737570706c7960701b60448201526064016105de565b6014811115610d355760405162461bcd60e51b815260206004820152601960248201527f4d696e74206174206d6f737420323020617420612074696d650000000000000060448201526064016105de565b610d478167016345785d8a0000611dfd565b341015610da55760405162461bcd60e51b815260206004820152602660248201527f496e73756666696369656e74207061796d656e742c20302e312045544820706560448201526572206974656d60d01b60648201526084016105de565b60005b81811015610ddc57610dbc33610b60610837565b610dca600a80546001019055565b80610dd481611e75565b915050610da8565b50506001600655565b610974338383611547565b610dfa3383610fd6565b610e165760405162461bcd60e51b81526004016105de90611d96565b610e2284848484611616565b50505050565b6001600160a01b0381166000908152600860205260408120546105ae906032611e5e565b6060610e5782611649565b604051602001610e679190611e90565b6040516020818303038152906040529050919050565b6007546001600160a01b03163314610ea75760405162461bcd60e51b81526004016105de90611d26565b6001600160a01b038116610f0c5760405162461bcd60e51b815260206004820152602660248201527f4f776e61626c653a206e6577206f776e657220697320746865207a65726f206160448201526564647265737360d01b60648201526084016105de565b610f1581611382565b50565b60006001600160e01b031982166380ac58cd60e01b1480610f4957506001600160e01b03198216635b5e139f60e01b145b806105ae57506301ffc9a760e01b6001600160e01b03198316146105ae565b600081815260046020526040902080546001600160a01b0319166001600160a01b0384169081179091558190610f9d82610978565b6001600160a01b03167f8c5be1e5ebec7d5bd14f71427d1e84f3dd0314c0f7b2291e5b200ac8c7c3b92560405160405180910390a45050565b6000818152600260205260408120546001600160a01b031661104f5760405162461bcd60e51b815260206004820152602c60248201527f4552433732313a206f70657261746f7220717565727920666f72206e6f6e657860448201526b34b9ba32b73a103a37b5b2b760a11b60648201526084016105de565b600061105a83610978565b9050806001600160a01b0316846001600160a01b031614806110955750836001600160a01b031661108a8461068c565b6001600160a01b0316145b806110c557506001600160a01b0380821660009081526005602090815260408083209388168352929052205460ff165b949350505050565b826001600160a01b03166110e082610978565b6001600160a01b0316146111445760405162461bcd60e51b815260206004820152602560248201527f4552433732313a207472616e736665722066726f6d20696e636f72726563742060448201526437bbb732b960d91b60648201526084016105de565b6001600160a01b0382166111a65760405162461bcd60e51b8152602060048201526024808201527f4552433732313a207472616e7366657220746f20746865207a65726f206164646044820152637265737360e01b60648201526084016105de565b6111b1600082610f68565b6001600160a01b03831660009081526003602052604081208054600192906111da908490611e5e565b90915550506001600160a01b0382166000908152600360205260408120805460019290611208908490611e46565b909155505060008181526002602052604080822080546001600160a01b0319166001600160a01b0386811691821790925591518493918716917fddf252ad1be2c89b69c2b068fc378daa952ba7f163c4a11628f55a4df523b3ef91a4505050565b804710156112b95760405162461bcd60e51b815260206004820152601d60248201527f416464726573733a20696e73756666696369656e742062616c616e636500000060448201526064016105de565b6000826001600160a01b03168260405160006040518083038185875af1925050503d8060008114611306576040519150601f19603f3d011682016040523d82523d6000602084013e61130b565b606091505b50509050806108325760405162461bcd60e51b815260206004820152603a60248201527f416464726573733a20756e61626c6520746f2073656e642076616c75652c207260448201527f6563697069656e74206d6179206861766520726576657274656400000000000060648201526084016105de565b600780546001600160a01b038381166001600160a01b0319831681179093556040519116919082907f8be0079c531659141344cd1fd0a4f28419497f9722a3daafe3b4186f6b6457e090600090a35050565b6001600160a01b03821661142a5760405162461bcd60e51b815260206004820181905260248201527f4552433732313a206d696e7420746f20746865207a65726f206164647265737360448201526064016105de565b6000818152600260205260409020546001600160a01b03161561148f5760405162461bcd60e51b815260206004820152601c60248201527f4552433732313a20746f6b656e20616c7265616479206d696e7465640000000060448201526064016105de565b6001600160a01b03821660009081526003602052604081208054600192906114b8908490611e46565b909155505060008181526002602052604080822080546001600160a01b0319166001600160a01b03861690811790915590518392907fddf252ad1be2c89b69c2b068fc378daa952ba7f163c4a11628f55a4df523b3ef908290a45050565b6001600160a01b0382166000908152600860205260408120805483929061153e908490611e46565b90915550505050565b816001600160a01b0316836001600160a01b031614156115a95760405162461bcd60e51b815260206004820152601960248201527f4552433732313a20617070726f766520746f2063616c6c65720000000000000060448201526064016105de565b6001600160a01b03838116600081815260056020908152604080832094871680845294825291829020805460ff191686151590811790915591519182527f17307eab39ab6107e8899845ad3d59bd9653f200f220920489ca2b5937696c31910160405180910390a3505050565b6116218484846110cd565b61162d84848484611724565b610e225760405162461bcd60e51b81526004016105de90611ebf565b6000818152600260205260409020546060906001600160a01b03166116c85760405162461bcd60e51b815260206004820152602f60248201527f4552433732314d657461646174613a2055524920717565727920666f72206e6f60448201526e3732bc34b9ba32b73a103a37b5b2b760891b60648201526084016105de565b60006116d2611831565b905060008151116116f2576040518060200160405280600081525061171d565b806116fc84611840565b60405160200161170d929190611f11565b6040516020818303038152906040525b9392505050565b60006001600160a01b0384163b1561182657604051630a85bd0160e11b81526001600160a01b0385169063150b7a0290611768903390899088908890600401611f40565b602060405180830381600087803b15801561178257600080fd5b505af19250505080156117b2575060408051601f3d908101601f191682019092526117af91810190611f7d565b60015b61180c573d8080156117e0576040519150601f19603f3d011682016040523d82523d6000602084013e6117e5565b606091505b5080516118045760405162461bcd60e51b81526004016105de90611ebf565b805181602001fd5b6001600160e01b031916630a85bd0160e11b1490506110c5565b506001949350505050565b6060600c805461060990611d5b565b6060816118645750506040805180820190915260018152600360fc1b602082015290565b8160005b811561188e578061187881611e75565b91506118879050600a83611e32565b9150611868565b60008167ffffffffffffffff8111156118a9576118a9611b5d565b6040519080825280601f01601f1916602001820160405280156118d3576020820181803683370190505b5090505b84156110c5576118e8600183611e5e565b91506118f5600a86611f9a565b611900906030611e46565b60f81b81838151811061191557611915611fae565b60200101906001600160f81b031916908160001a905350611937600a86611e32565b94506118d7565b82805461194a90611d5b565b90600052602060002090601f01602090048101928261196c57600085556119b2565b82601f1061198557805160ff19168380011785556119b2565b828001600101855582156119b2579182015b828111156119b2578251825591602001919060010190611997565b506119be9291506119c2565b5090565b5b808211156119be57600081556001016119c3565b6001600160e01b031981168114610f1557600080fd5b6000602082840312156119ff57600080fd5b813561171d816119d7565b80358015158114611a1a57600080fd5b919050565b600060208284031215611a3157600080fd5b61171d82611a0a565b60005b83811015611a55578181015183820152602001611a3d565b83811115610e225750506000910152565b60008151808452611a7e816020860160208601611a3a565b601f01601f19169290920160200192915050565b60208152600061171d6020830184611a66565b600060208284031215611ab757600080fd5b5035919050565b80356001600160a01b0381168114611a1a57600080fd5b60008060408385031215611ae857600080fd5b611af183611abe565b946020939093013593505050565b600080600060608486031215611b1457600080fd5b611b1d84611abe565b9250611b2b60208501611abe565b9150604084013590509250925092565b60008060408385031215611b4e57600080fd5b50508035926020909101359150565b634e487b7160e01b600052604160045260246000fd5b600067ffffffffffffffff80841115611b8e57611b8e611b5d565b604051601f8501601f19908116603f01168101908282118183101715611bb657611bb6611b5d565b81604052809350858152868686011115611bcf57600080fd5b858560208301376000602087830101525050509392505050565b600060208284031215611bfb57600080fd5b813567ffffffffffffffff811115611c1257600080fd5b8201601f81018413611c2357600080fd5b6110c584823560208401611b73565b600060208284031215611c4457600080fd5b61171d82611abe565b60008060408385031215611c6057600080fd5b611c6983611abe565b9150611c7760208401611a0a565b90509250929050565b60008060008060808587031215611c9657600080fd5b611c9f85611abe565b9350611cad60208601611abe565b925060408501359150606085013567ffffffffffffffff811115611cd057600080fd5b8501601f81018713611ce157600080fd5b611cf087823560208401611b73565b91505092959194509250565b60008060408385031215611d0f57600080fd5b611d1883611abe565b9150611c7760208401611abe565b6020808252818101527f4f776e61626c653a2063616c6c6572206973206e6f7420746865206f776e6572604082015260600190565b600181811c90821680611d6f57607f821691505b60208210811415611d9057634e487b7160e01b600052602260045260246000fd5b50919050565b60208082526031908201527f4552433732313a207472616e736665722063616c6c6572206973206e6f74206f6040820152701ddb995c881b9bdc88185c1c1c9bdd9959607a1b606082015260800190565b634e487b7160e01b600052601160045260246000fd5b6000816000190483118215151615611e1757611e17611de7565b500290565b634e487b7160e01b600052601260045260246000fd5b600082611e4157611e41611e1c565b500490565b60008219821115611e5957611e59611de7565b500190565b600082821015611e7057611e70611de7565b500390565b6000600019821415611e8957611e89611de7565b5060010190565b60008251611ea2818460208701611a3a565b6a173a37b5b2b7173539b7b760a91b920191825250600b01919050565b60208082526032908201527f4552433732313a207472616e7366657220746f206e6f6e20455243373231526560408201527131b2b4bb32b91034b6b83632b6b2b73a32b960711b606082015260800190565b60008351611f23818460208801611a3a565b835190830190611f37818360208801611a3a565b01949350505050565b6001600160a01b0385811682528416602082015260408101839052608060608201819052600090611f7390830184611a66565b9695505050505050565b600060208284031215611f8f57600080fd5b815161171d816119d7565b600082611fa957611fa9611e1c565b500690565b634e487b7160e01b600052603260045260246000fdfea2646970667358221220e0314669e94d6219c2de6b30969df98ad1e60cdd0dccb2aec43df95fe0d38fc464736f6c63430008090033",
  "linkReferences": {},
  "deployedLinkReferences": {}
}